:020000040800F2
:1000000000200020C10200081103000811030008AD
:1000100000000000000000000000000000000000E0
:1000200000000000000000000000000011030008B4
:100030000000000000000000110300081103000888
:10004000110300080000000011030008110300085C
:100050001103000811030008110300081103000830
:10006000000000001103000811030008110300083C
:10007000110300081103000811030008000000002C
:100080001103000800000000000000001103000838
:10009000000000001103000811030008110300080C
:1000A00011030008110300081103000811030008E0
:0800B00011030008000000002C
:1000B8000448054B10B5834203D0044B002B00D0F5
:1000C800984710BD0000002000000020000000003C
:1000D80006480749091A8B10C90FC91810B54910E5
:1000E80003D0044B002B00D0984710BD000000201F
:1000F800000000200000000010B5074C2378002BFA
:1001080009D1FFF7D5FF054B002B02D0044800E0CA
:1001180000BF0123237010BD000000200000000074
:100128003C030008054B10B5002B03D004490548D3
:1001380000E000BFFFF7CCFF10BDC0460000000084
:10014800040000203C03000870B50D4B0D4D5E1BEC
:10015800B610AB4205D0002408CD01349847A6421A
:10016800FAD800F0E7F8084B084D5E1BB610AB4212
:1001780005D0002408CD01349847A642FAD870BDAE
:1001880054030008540300085C03000854030008E3
:1001980010B5010000230022002000F015F810BD62
:1001A80070B5074C074D641BA41005D0013CA30093
:1001B800EB589847002CF9D100F0C2F870BDC04642
:1001C800600300085C030008F0B5C6461A4C00B589
:1001D8002568002D2AD06C681F2C2ADC002808D13D
:1001E8000020631C0234A4006B60615180BCB846D7
:1001F800F0BD8827A600AE19F2510137FF37BC467B
:100208000122AC446746A2403F68904617436246C5
:10021800176084277F00F3510228E1D12800424665
:100228008D30FF30036813430360D9E7034D256021
:10023800D1E701204042D9E71C000020200000201F
:10024800164B1A6AD20100D4FEE7154A15499A607E
:10025800154A9A60154ADA60154ADA601A6A0A403D
:1002680080211A6249021A690A42FCD1802258691F
:10027800920202435A611A690A42FCD180210D4A4E
:1002880049021869084202D1013A002AF9D18022AC
:10029800596912050A435A61FEE7C0460020024028
:1002A80023016745FFFFFFFEAB89EFCD3B2A190805
:1002B8007F6E5D4C80841E000D48854600F026F850
:1002C8000C480D490D4A002302E0D458C4500433A9
:1002D800C4188C42F9D30A4A0A4C002301E013607F
:1002E8000432A242FBD3FFF72FFFFFF7A9FFFEE777
:1002F800002000200000002000000020600300080B
:1003080000000020B0010020FEE700008022024B20
:1003180012059A607047C04600ED00E0034B10B527
:10032800002B02D00248FFF733FF10BD0000000089
:10033800A9010008F8B5C046F8BC08BC9E4670473D
:0C034800F8B5C046F8BC08BC9E467047E3
:08035400250300082D0100083B
:04035C000101000893
:04000005080002C12C
:00000001FF
